:020000040800F2
:1000000090060020196100083D0200083F02000828
:1000100043020008470200084B02000800000000ED
:100020000000000000000000000000004F02000877
:10003000510200080000000053020008316100086E
:100040003361000833610008336100083361000840
:100050003361000833610008336100083361000830
:100060003361000833610008336100083361000820
:100070003361000833610008336100083361000810
:100080003361000833610008336100085906000835
:100090006F0600083361000833610008336100080F
:1000A00033610008336100083361000833610008E0
:1000B000FD03000833610008830400083361000871
:1000C00033610008336100083361000833610008C0
:1000D0003361000833610008E10E0008EF0C0008EE
:1000E00033610008336100083361000833610008A0
:1000F0003361000833610008336100083361000890
:10010000336100083361000833610008336100087F
:10011000770B000833610008336100083361000881
:10012000336100083361000833610008336100085F
:10013000336100083361000833610008336100084F
:100140003309000833610008336100083361000897
:10015000336100083361000833610008336100082F
:10016000336100083361000833610008336100081F
:10017000336100083361000833610008336100080F
:100180003361000833610008DFF80CD005F0ECFFA4
:10019000004800479D010008900600200EB54FF46E
:1001A0007A6000F0E3F800F055F801F053F801F040
:1001B0008DFF00F014FD03F02BF818A005F0E6FF0A
:1001C000194800881949088017484088488016480F
:1001D000808888801448C088C8801548B0F900001D
:1001E00008811448B0F9000048810846B0F90A00B7
:1001F000B1F908100D4AB2F90620CDE900210290AC
:100200000A48B0F90430B0F90220B0F900100A48E9
:1002100005F0BCFF00F00AF900BFFEE75449545254
:10022000202D20524D0D0A000C0000200801002056
:10023000160000201A00002020630008704700BF4D
:10024000FEE700BFFEE700BFFEE700BFFEE7704726
:100250007047704710B500F029F900F0ADFA00F0D2
:100260009DFB00F0C7FD00F03BF800F001F810BD69
:100270001CB50121122004F001FBF02000900120A8
:100280008DF8040000208DF8060003208DF805008D
:1002900002208DF8070069460F4805F093F93C20CD
:1002A000009001208DF8040000208DF80600032046
:1002B0008DF8050002208DF807006946074805F013
:1002C00081F93C21054805F0FBF9F021024805F0D1
:1002D000F7F91CBD70470000000402400010024006
:1002E0001CB50121022004F0C9FA0121042004F008
:1002F000C5FA0121102004F0C1FA0120009000206D
:100300008DF804008DF8060001208DF8070002200A
:100310008DF805006946124805F054F9E020009078
:1003200000208DF804008DF8060001208DF80700EC
:1003300002208DF8050069460A4805F043F90C20B3
:10034000009000208DF804008DF8060002208DF842
:1003500007008DF805006946034805F033F91CBD18
:100360000004024000000240000C024010B50021D1
:1003700007E04AF2104200BF131EA2F10102FBD1B6
:10038000491C8142F5D310BD10B5002106E028229A
:1003900000BF131EA2F10102FBD1491C8142F6D31A
:1003A00010BD00001FB50121084604F09AFA40F282
:1003B000E73002905320ADF804000020ADF80600AD
:1003C000ADF80C0001A94FF0804003F02CFB012296
:1003D0001146900703F0C8FF0121880703F0ACFB2A
:1003E0001C208DF8000001208DF801008DF802001E
:1003F0008DF80300684603F0FEF91FBD10B501211A
:10040000880703F0C8FF01280CD107480068401C8A
:10041000054908600121880703F0CEFF0121880704
:1004200003F0B6FF10BD0000000000201FB5012141
:10043000042004F056FA40F2CF7002905320ADF839
:1004400004000020ADF80600ADF80C0001A9164824
:1004500003F0E9FA01221146134803F085FF012158
:10046000114803F069FB1E208DF8000001208DF873
:1004700001008DF802008DF80300684603F0BBF917
:100480001FBD10B50121084803F085FF012809D1DF
:1004900000F0B2FE0121044803F08EFF0121024862
:1004A00003F076FF10BD00000008004000B58BB0DF
:1004B0000121084604F0E2F90121480604F011FA8E
:1004C00009220C21B44805F008F909220B21B24891
:1004D00005F003F94FF4C050029002208DF80C0093
:1004E00002A9AD4805F06EF814208DF80400002034
:1004F0008DF8050001208DF806008DF8070001A891
:1005000003F079F9A54804F0F7FA08A804F018FCFC
:1005100000208DF826008DF827008DF828008DF832
:1005200029008DF82A0001208DF82B0000208DF87D
:1005300022008DF8230008208DF8240003208DF878
:100540002500ADF8200008A9944804F0EEFA002038
:100550008DF81A008DF81B0001208DF81C0000207A
:10056000ADF81000ADF81200ADF81400ADF81600AB
:10057000ADF8180001208DF81D0004A804F05FFB01
:1005800001220221854804F059FE012211468348C8
:1005900004F054FE0BB000BDF0B585B004460D4626
:1005A00016461F4640F2FF100090002001908DF883
:1005B00008008DF8090008208DF80A00200A8DF83F
:1005C0000B00E1B28DF80C10290A8DF80D10E9B27C
:1005D0008DF80E10310A8DF80F10F1B28DF8101051
:1005E000390A8DF81110F9B28DF8121069466B486E
:1005F00004F014FC05B0F0BDF0B585B004460D461E
:1006000016461F464FF400700090002001908DF8B0
:1006100008008DF8090008208DF80A00200A8DF8DE
:100620000B00E1B28DF80C10290A8DF80D10E9B21B
:100630008DF80E10310A8DF80F10F1B28DF81010F0
:10064000390A8DF81110F9B28DF812106946534825
:1006500004F0E4FB05B0F0BD10B501214F4804F0F3
:1006600055FE18B101214D4804F0EBFE10BD00B558
:1006700085B00221494804F049FE00287ED06A4630
:100680000021464804F0BFFC0098A0F20120062893
:1006900079D2DFE800F00316293C4F629DF80D0087
:1006A000000200B29DF80E1008433D4908809DF8F5
:1006B0000B00000200B29DF80C1008433949088075
:1006C00062E09DF80D00000200B29DF80E10084394
:1006D000334948809DF80B00000200B29DF80C10D1
:1006E0000843304948804FE09DF80D00000200B2F9
:1006F0009DF80E1008432A4988809DF80B000002DF
:1007000000B29DF80C100843264988803CE09DF813
:100710000D00000200B29DF80E1008432049C88069
:100720009DF80B00000200B29DF80C1008431D4913
:10073000C88029E09DF80D00000200B29DF80E105F
:100740000843194908809DF80B00000200B29DF88B
:100750000C1008431549088016E09DF80D000002B2
:1007600000B29DF80E100843114908809DF80B0057
:10077000000200B29DF80C10084301E009E002E01D
:100780000C49088000E000BF00BF0221034804F0CC
:1007900058FE05B000BD00000000024000640040AB
:1007A000040000200C00002014000020160000208F
:1007B000180000201A00002000B58BB00121022093
:1007C00004F05CF80121480604F08BF8012188064A
:1007D00004F087F809220D216B4804F07EFF0922FE
:1007E0000C21694804F079FF4FF440500290022038
:1007F0008DF80C0002A9644804F0E4FE40208DF856
:10080000040000208DF8050002208DF8060001206C
:100810008DF8070001A802F0EEFF5C4804F06CF9C7
:1008200008A804F08DFA00208DF826008DF8270026
:100830008DF828008DF829008DF82A0001208DF808
:100840002B0000208DF822008DF8230008208DF861
:10085000240003208DF82500ADF8200008A94B489E
:1008600004F063F90E208DF81A0000208DF81B00AB
:1008700001208DF81C000020ADF81000ADF812002A
:10088000ADF81400ADF81600ADF8180001208DF891
:100890001D0004A804F0D3F9012202213B4804F012
:1008A000CDFC0BB000BDF0B585B004460D46164634
:1008B0001F4611200090002001908DF808008DF84F
:1008C000090008208DF80A00200A8DF80B00E1B21B
:1008D0008DF80C10290A8DF80D10E9B28DF80E1064
:1008E000F1B28DF80F10F9B28DF810106946274853
:1008F00004F094FA05B0F0BD70B586B004460D461C
:10090000164612200190002002908DF80C008DF800
:100910000D0008208DF80E00E0B28DF80F008DF864
:1009200010508DF8116001A9184804F077FA06B04C
:1009300070BD00B585B00221144804F0E7FC08B38F
:100940006A460021114804F05EFB0098112802D08D
:10095000122811D10AE09DF80B0040B20C49087032
:100960009DF80C0040B20B49087006E09DF80B00A2
:1009700040B20949087000E000BF00BF02210348EF
:1009800004F05FFD05B000BD0004024000680040B7
:100990001C0000201D0000201E00002000B597B0A4
:1009A0000121480503F06AFF0121042003F066FFDE
:1009B0000121C80403F095FF08220B21904804F0A0
:1009C0008CFE4FF40060119002208DF8480000204A
:1009D0008DF84A0003208DF8490001208DF84B0066
:1009E00011A9874804F0EEFD864813900020ADF869
:1009F0005000ADF85200ADF854000420ADF8560098
:100A00000020ADF8580013A97F4805F0BDF8012279
:100A100040217D4805F0EDF901217B4805F03CF9C6
:100A20004FF40071784805F01FFA34208DF840002B
:100A300003208DF8410002208DF8420001208DF83E
:100A4000430010A802F0D7FE012240F224416E4874
:100A500005F0D8F96D4804F075FE4FF00060019084
:100A60006948001D02906A480390002004901320FA
:100A70000590002006904FF48060079000200990B8
:100A800008900A904FF480300B9000200C900320C7
:100A90000D9000200E900F9001A95C4804F0F4FE28
:100AA00001215A4804F02AFF17B000BD58480078C9
:100AB0005749497840EA0120C0F30A0055490880A7
:100AC00053484078C0105249897840EA4110C0F339
:100AD0000A00504948804E48807880114C49C978B6
:100AE00040EA81004A49097940EA8120C0F30A00BE
:100AF000484988804648007940104549497940EA8C
:100B0000C110C0F30A004349C88041484079001130
:100B1000800808723E484079C0F3011048723C4892
:100B200080793B49C97940EA012000B239494881BE
:100B30003748007A3649497A40EA012001B23548FF
:100B400081813348807A3249C97A40EA012001B272
:100B50003048C1812E48017B2E4801742C48417BCE
:100B60002C4841742A48807B2949C97B40EA0120EE
:100B700028494882704710B52348001D008826493F
:100B800008702148008808700021204804F0B6FE53
:100B90001E484038406C012801D1FFF787FF1D4CEB
:100BA000647C63B21B4C247C62B21A4CB4F90C1006
:100BB000648A20B2FFF777FE1849144804F017FF43
:100BC00000BF124804F0E7FE0028FAD113210F48B5
:100BD00004F0B5FE01210D4804F090FE10BD4FF465
:100BE00080600C49488008808880C8800020488147
:100BF0000021084881810020064948827047000092
:100C000000080240A0860100004C00404060024005
:100C100028010020140100201F00002000003010D7
:100C200000B587B00121022003F028FE01218804CD
:100C300003F057FE07220A21664804F04EFD072202
:100C40000B21644804F049FD4FF4406001900220FC
:100C50008DF8080000208DF80A0003208DF80900A7
:100C600001208DF80B0001A95A4804F0ABFC5A484A
:100C700004F03CFF4FF4E13003900020ADF8100089
:100C8000ADF81200ADF814000C20ADF816000020ED
:100C9000ADF8180003A9504804F076FF01214E4832
:100CA00004F0FAFF27208DF8000000208DF80100E5
:100CB00002208DF8020001208DF80300684602F042
:100CC0009AFD012240F22551434805F09BF807B0F8
:100CD00000BD10B5044600BF40213F4805F0B7F8FD
:100CE0000028F9D021463C4805F001F810BD10B5A8
:100CF00040F22551384805F0C0F8002869D040F28C
:100D00002551354805F0F0F83348001D0088334977
:100D1000087008460078302804D19FED310A314828
:100D200080ED000A2D480078312804D19FED2E0A6D
:100D30002C4880ED000A29480078322808D129483B
:100D400090ED000ADFED290A30EE200A80ED000A5E
:100D500022480078332808D1224890ED000ADFEDC0
:100D6000230A30EE600A80ED000A1C48007834281F
:100D700008D11C4890ED040ADFED1D0A30EE200A70
:100D800080ED040A15480078352808D1154890ED03
:100D9000040ADFED170A30EE600A80ED040A0F48FE
:100DA0000078362808D10F4890ED070ADFED100AC9
:100DB00030EE200A80ED070A08480078372808D16D
:100DC000084890ED070ADFED0A0A30EE600A80ED70
:100DD000070A10BD00040240004800402000002027
:100DE000000000003C01002000DF40490000FA4400
:100DF0000AD7233C00B587B00121082003F03EFD4F
:100E00000121480403F06DFD07220521724804F01A
:100E100064FC07220621704804F05FFC602001900A
:100E200002208DF8080000208DF80A0003208DF8BC
:100E3000090002208DF80B0001A9674804F0C2FBED
:100E4000664804F053FE4FF4E13003900020ADF803
:100E50001000ADF81200ADF814000C20ADF816002B
:100E60000020ADF8180003A95C4804F08DFE0122B3
:100E700040F22551594804F0C5FF0121574804F0BC
:100E80000BFF26208DF8000001208DF801000220C4
:100E90008DF8020001208DF80300684602F0ABFCDB
:100EA00007B000BD10B5044600BF40214B4804F018
:100EB000CEFF0028F9D02146484804F018FF10BDA5
:100EC00070B504460D4600BF4021444804F0BFFF02
:100ED0000028F9D0E1B2414804F009FF204670BD76
:100EE00010B540F225513D4804F0C7FF002872D0EC
:100EF00040F22551394804F0F7FF3848001D0088BA
:100F00003749087008460078302804D19FED350A2B
:100F1000354880ED000A32480078312804D19FED31
:100F2000330A314880ED000A2D480078322808D174
:100F30002D4890ED000ADFED2E0A30EE200A80EDFC
:100F4000000A27480078332808D1274890ED000A86
:100F5000DFED270A30EE600A80ED000A20480078B5
:100F6000342808D1204890ED040ADFED220A30EE43
:100F7000200A80ED040A1A480078352808D11A485A
:100F800090ED040ADFED1B0A30EE600A80ED040AE2
:100F900013480078362808D1134890ED070ADFED92
:100FA000150A30EE200A80ED070A0D480078372830
:100FB00008D10D4890ED070ADFED0E0A30EE600A09
:100FC00080ED070A06480078382804D19FED050A0D
:100FD000054880ED120A10BD000C0240004400409C
:100FE00021000020000000003C020020005898472B
:100FF0000000FA440AD7233CB0EE401A70EEC11A42
:10100000F5EEC01AF1EE10FA02DD70EEC11A03E03F
:1010100070EEC11AF1EE611A9FED852AF4EEC21A44
:10102000F1EE10FA12DDF4EEC10AF1EE10FA06DD6F
:10103000DFED801A70EEE11A31EEC10A08E0DFED53
:101040007D1A71EEC11A31EEA00A01E030EEC10A3C
:101050007047B0EE402AB4EEE02AF1EE10FA09D261
:1010600030EEC20AB4EEC10AF1EE10FA02DD32EE41
:10107000010A7047B4EEE02AF1EE10FA09DD32EE13
:10108000600AB4EEE10AF1EE10FA02DD32EE610A16
:10109000EFE7B0EE600AECE700B5F0EE402AF0EEC4
:1010A000603AB0EE414AF0EE614A9FED630AB0EE5D
:1010B000403AF5EEC02AF1EE10FA09DCF5EEC02A4E
:1010C000F1EE10FA1AD1F5EEC03AF1EE10FA15DB96
:1010D000F0EE641AB0EE441AF0EE630AB0EE620A63
:1010E000FFF7B7FFB0EE403AB5EEC03AF1EE10FAB6
:1010F00019D29FED510AB0EE403A14E0F0EE441AD6
:10110000B0EE641AF0EE630AB0EE620AFFF7A1FFD8
:10111000B0EE403AB5EEC03AF1EE10FA03DD9FEDC5
:10112000460AB0EE403AB0EE430A00BD03468B4299
:1011300001DD08467047934201DA1046FAE7184687
:10114000F8E700B5F0EE401AF5EEC01AF1EE10FA2D
:1011500015D1F5EEC00AF1EE10FA02DDB0EE600A2C
:1011600001E0B1EE600A9FED352AB4EEC20AF1EE5D
:1011700010FA04DD32480068401C314908603048EC
:101180000068C82810DBC8202D4908602D4A51424C
:10119000BDEEE00A10EE100AFFF7C8FF00EE100ADD
:1011A000B8EEC00AF0EE400AF5EEC00AF1EE10FA11
:1011B00002DDB0EE600A01E0B1EE600A9FED1F2A89
:1011C000B4EEC20AF1EE10FA05D21D48006810B163
:1011D00000201B4908601C4890ED000AB4EE410A4B
:1011E000F1EE10FA02D0002015490860164880ED93
:1011F000001AB0EE600A00BD10B502F060F900F010
:101200002EFE124A92ED110ABDEEC00A10EE102A0F
:1012100011B20F4A92ED110ABDEEC00A10EE102A6B
:1012200010B200231A46FFF7B7F901F015FB10BD05
:1012300000E0AB4500F8FF45000000000000FA4563
:1012400024000020C0E0FFFF280000203C02002016
:101250003C0100209FEDFD0AFD4880ED000A9FED56
:10126000FB0A80ED020A9FEDFB0A80ED040A9FED68
:10127000F70A80ED060A9FEDF50A80ED080A9FED5A
:10128000F30A80ED0A0A9FEDF10A80ED0C0A9FED4A
:10129000EF0A80ED0E0A9FEDED0A80ED120A9FED38
:1012A000EB0A80ED100A9FEDE90A80ED010A9FED3F
:1012B000E70A80ED030A9FEDE80A80ED050A9FED3D
:1012C000E70A80ED070A9FEDE10A80ED090A9FED2C
:1012D000DF0A80ED0B0A9FEDDD0A80ED0D0A9FED20
:1012E000DB0A80ED0F0A9FEDD90A80ED130A9FED0E
:1012F000D70A80ED110A7047DFEDD90AD948C0ED51
:10130000000AD0ED000A60EE200AB0EE600A7047D5
:1013100010B5CF4991ED000ABDEEC00A10EE100ADB
:10132000D14AD249FFF702FF00EE100AB8EEC00A18
:10133000C74880ED000A90ED000AD0ED020A30EEB9
:10134000600A80ED0A0A90ED0E0AD0ED0A0A30EE2E
:10135000200A80ED0E0A014691ED0E0ABDEEC00A8C
:1013600010EE100AC04A5142FFF7E0FE00EE100AEC
:10137000B8EEC00AB64880ED0E0A90ED040AD0ED32
:101380000A0A20EE200AD0ED060A90ED0E1A00EEB1
:10139000810AD0ED0A0A90ED0C1A70EEC10A90EDA8
:1013A000081A01EE200A80ED100A90ED0A0A80ED7D
:1013B0000C0A10BD10B5AE480068012840D1AD48F8
:1013C0000068F0B99FEDA30AA14880ED040A9FEDE3
:1013D000AA0A80ED070AB1EE040A80ED090A014667
:1013E00091ED010ABDEEC00A10EE100AA34A514267
:1013F000FFF79CFE00EE100AB8EEC00A944880ED9C
:10140000010A9C48006802281AD19FED9D0A904865
:1014100080ED070AB1EE040A80ED090A014691ED5C
:10142000010ABDEEC00A10EE100A964A5142FFF7BB
:101430007DFE00EE100AB8EEC00A854880ED010A74
:101440008B480068022844D18A480068F0B99FEDB3
:10145000810A7F4880ED040A9FED8B0A80ED070A20
:10146000B1EE040A80ED090A014691ED010ABDEED4
:10147000C00A10EE100A854A5142FFF757FE00EEEF
:10148000100AB8EEC00A724880ED010A7948006877
:1014900001281ED19FED7E0A6D4880ED040A9FED64
:1014A0007D0A80ED070AB0EE080A80ED090A0146C0
:1014B00091ED010ABDEEC00A10EE100A764A5142C3
:1014C000FFF734FE00EE100AB8EEC00A604880ED67
:1014D000010A6748006840B99FED5E0A5C4880EDEC
:1014E000040A9FED6E0A80ED070A594890ED030A41
:1014F000B5EEC00AF1EE10FA02DD90ED030A04E049
:10150000534890ED030AB1EE400AF1EE040AB4EE3E
:10151000E00AF1EE10FA04D89FED4C0A4C4880ED39
:10152000030A4B4890ED010AD0ED030A30EE600A41
:1015300080ED0B0A90ED0F0AD0ED0B0A30EE200A79
:1015400080ED0F0A014691ED0F0ABDEEC00A10EEC4
:10155000100A534A5142FFF7E9FD00EE100AB8EEB7
:10156000C00A3B4880ED0F0A90ED050AD0ED0B0A4A
:1015700020EE200AD0ED070A90ED0F1A00EE810A46
:10158000D0ED0B0A90ED0D1A70EEC10A90ED091A1C
:1015900001EE200A80ED110A014691ED110ABDEE1F
:1015A000C00A10EE100A3F4A5142FFF7BFFD00EE9D
:1015B000100AB8EEC00A264880ED110A90ED0B0A19
:1015C00080ED0D0A38480088D8B9214890ED110AFD
:1015D000B5EEC00AF1EE10FA02DD90ED110A04E05A
:1015E0001B4890ED110AB1EE400ADFED300AB4EE6F
:1015F000E00AF1EE10FA04DD2D480068401C2C4989
:1016000008602B480068C82814DBC82028490860F7
:101610000F4991ED110ABDEEC00A10EE100A204AE2
:101620005142FFF783FD00EE100AB8EEC00A0848E9
:1016300080ED110A064890ED110AB5EEC00AF1EEF0
:1016400010FA37DD90ED110A39E0000000000000CB
:101650003C0100209A99993E9A9979403333B33EE0
:1016600000A0E0442C00002018FCFFFF105C0C00E0
:1016700030000020340000207B142E3F90E8FFFF54
:10168000295C8F3E78ECFFFF7B14AE3E3CF6FFFFFB
:10169000CDCCCC3E0AD7233FA8E4FFFF6666E63EEA
:1016A000C0E0FFFF68C5FFFF140000200000FA45FE
:1016B00038000020FE4890ED110AB1EE400A5FEDBF
:1016C000050AB4EEE00AF1EE10FA05D2F948006816
:1016D00010B10020F749086010BD10B5F648408AE7
:1016E000B0F5007F19D1F5480068B0B9F44800683A
:1016F00098B9032200210846FFF7FEF89FEDF10A92
:10170000EB4880ED000A0020EF4908600120EC4919
:101710000860EA490860ED490860E748408AB0F58A
:10172000007F14D0E5480068012810D1E448006823
:1017300001280CD14021E64803F0A6FF38B9032266
:1017400001210020FFF7D8F80220DD490860DA48BF
:10175000408AB0F5007F0FD1D848006801280BD12E
:10176000D7480068022807D1012211461046FFF72A
:10177000C3F80220D1490860CF48408AB0F5007F05
:101780000CD0CE480068022808D1CD480068022855
:1017900004D10320CA490860C8490860C648408A85
:1017A000B0F5007F03D0CB480078022821D1C34890
:1017B000006803281DD1C2480068032819D1C64813
:1017C0000068401CC449086008460068B0F5967F70
:1017D0000FDB1FED620AB64880ED000A0120BA490E
:1017E00008600420B6490860B44908600020BA497E
:1017F0000860B148408AB0F5007F19D0AF48006852
:10180000042815D1AE480068042811D10421B3483A
:1018100003F03AFF01280BD10821B04803F034FF50
:10182000012805D10520A64908600420A3490860C5
:10183000A248006804281ED1A148006805281AD1D2
:101840000421A64803F020FF28B90821A34803F08B
:101850001BFF01280AD00421A04803F015FF01282E
:1018600009D108219D4803F00FFF20B905209449B4
:101870000860924908609148006805281ED1904888
:10188000006805281AD10421944803F0FDFE0128C0
:1018900014D10821914803F0F7FE01280ED19FEDE5
:1018A000900AFFF729FD824880ED000A0220864950
:1018B0000860062082490860804908607E48408AA6
:1018C000B0F5007F12D17D48006806280ED17C4813
:1018D000006806280AD1032201210020FFF70CF836
:1018E0000620774908600720744908607248408ADA
:1018F000B0F5007F25D071480068072821D17048D5
:10190000006806281DD174480068401C72490860B0
:1019100008460068962811DB042200210846FEF7DD
:10192000EBFF0020684908600720654908606349AB
:101930000860002068490860664908700020634913
:1019400008605D48408AB0F5007F1BD15B480068A5
:10195000072817D15A480068072813D19FED600A5D
:10196000FFF7CAFC524880ED000A00205649086083
:1019700003220121FEF7C0FF082051490860012021
:10198000524908604C48408AB0F5007F0DD04B4862
:101990000068072809D14A480068082805D10920AD
:1019A000474908600820454908604348408AB0F527
:1019B000007F11D14148006808280DD140480068D7
:1019C000092809D1012211461046FEF795FF09208A
:1019D0003B490860394908603748408AB0F5007FC4
:1019E0000CD036480068092808D135480068092815
:1019F00004D10A2032490860304908602F48006845
:101A00000A2819D12E4800680A2815D12A48408A88
:101A1000B0F5007F03D02F48007802280CD11FEDCD
:101A2000F50A234880ED000A0120274908600B20B1
:101A300023490860214908601F48408AB0F5007FAB
:101A40000CD01E4800680B2808D11D4800680B28E0
:101A500004D10C201A490860184908601648408AC9
:101A6000B0F5007F20D1154800680C281CD114481F
:101A700000680C2818D10421184803F005FE01283D
:101A800012D10821154803F0FFFD01280CD19FED6C
:101A90000D0A074880ED000A02200B4908600D205E
:101AA00007490860054908600348408A1AE00000B9
:101AB0003C010020380000201401002054000020C8
:101AC000580000200050434934000020A4000020AA
:101AD000000002401E0000205C000020000C0240BC
:101AE00000007042B0F5007F16D0FE4800680D2857
:101AF00012D1FD4800680D280ED10421FB4803F0E7
:101B0000C3FD48B90821F94803F0BEFD20B90E20F5
:101B1000F5490860F3490860F548408AB0F5007F50
:101B200012D1F04800680E280ED1EF4800680E2848
:101B30000AD1032201210020FEF7DEFE0E20EA4931
:101B400008600F20E7490860E948408AB0F5007F47
:101B50001FD0E44800680F281BD1E34800680E2816
:101B600017D1E4480068401CE24908600846006854
:101B700096280EDB042200210846FEF7BDFE0F204A
:101B8000D9490860D74908600020DA490860DA4975
:101B90000870D748408AB0F5007F14D1D14800685A
:101BA0000F2810D1D04800680F280CD19FEDD30A20
:101BB000D34880ED000A0020D24908601020CA49AD
:101BC0000860C8490860CA48408AB0F5007F0ED056
:101BD000C448006810280AD1C3480068102806D1FC
:101BE0000020C1490860BF490860C7490860C04873
:101BF000408AB0F5806F16D19FEDC40AFFF77CFBD9
:101C0000BF4880ED000A0020BE4908600720B649A1
:101C10000860B44908600120BD4908600020B64949
:101C20000870B9490860B248408AB0F5826F15D192
:101C30009FEDB60AFFF760FBB14880ED000A002077
:101C4000B04908600720A8490860A649086000203C
:101C5000AF490860A8490870AB490860A14800680E
:101C6000072803D1A0480068072807D09D480068CE
:101C700008281AD19C480068092816D19C48408A37
:101C8000B0F5807F11D19FEDA30AFFF735FB9C488B
:101C900080ED000A00209B490860072092490860F7
:101CA000904908600020984908609148408AB0F542
:101CB000807F13D18B48006880B98B48006868B971
:101CC0001FED800A8E4880ED000A00208D490860D3
:101CD00085490860834908608B4908608448408AC8
:101CE000112813D11FED890A854880ED000A0020D4
:101CF00084490860884908607B4908607949086020
:101D0000834908607C4908707F4908607848408AA8
:101D1000122817D101208149086000207E490860FF
:101D20009FED760A764880ED000A0020754908602C
:101D30006D4908606B490860754908606E49087014
:101D4000714908606A48408A21280BD100206D49FA
:101D500008606B4890ED000ADFED710A30EE200A52
:101D600080ED000A6248408A22280BD10020654994
:101D70000860634890ED000ADFED690A30EE600A02
:101D800080ED000A5A48007A032811D15C48D0ED52
:101D9000000A57484088A0F5806000EB400000EE44
:101DA000100AB8EEC00A30EE800A554880ED000AED
:101DB0004F48408AB0F5004F0AD15748006838B9FB
:101DC000002211461046FEF797FD01205249086097
:101DD0004748408AB0F5004F06D04F4800680128B8
:101DE00002D102204C4908604148408AB0F5004FBA
:101DF0000BD149480068022807D100220121104672
:101E0000FEF77AFD0320444908603948408AB0F55E
:101E1000004F06D040480068032802D104203E4904
:101E200008603348408AB0F5004F0BD13A4800684B
:101E3000042807D1002201210846FEF75DFD052098
:101E4000354908602A48408AB0F5004F06D032482C
:101E50000068052802D100202F49086010BD10B588
:101E600030480068B0B93048B0F9000000EE100A00
:101E7000B8EEC00A2D4880ED000A2B48B0F90000EA
:101E800000EE100AB8EEC00A294880ED000A0120D1
:101E9000244908602348006801287DD12248B0F910
:101EA000000000EE100AB8EEC00A204880ED000ADB
:101EB000D0ED000A1E4890ED000AFFF79DF810488B
:101EC000D0ED120A30EE200A80ED120A20211948C6
:101ED00003F0DAFB012833D14021164803F0D4FB8C
:101EE000012829E05400002058000020000C024086
:101EF000140100205C0000201E00002000000000F3
:101F00003C01002034000020A400002000002043F9
:101F1000600000200000664368000020640000208C
:101F20000000964344000020160000203C000020E2
:101F3000400000200000024002D100205549086006
:101F400055480068012812D12021544803F09CFB19
:101F500068B94021514803F097FB012807D10422BA
:101F600000210846FEF7C8FC00204B4908604C4899
:101F700090ED120ADFED4B0AB4EEE00AF1EE10FA32
:101F80001DD22021454803F07FFBC0B940214348C2
:101F900003F07AFB012800E07AE010D13D480068A8
:101FA00002280CD01FED2B0A3D4880ED120A0220BA
:101FB0003D4908603749086000203C4908603848BE
:101FC00090ED120ADFED3A0AB4EEE00AF1EE10FAF3
:101FD00018DD4021314803F057FB98B920212F48E4
:101FE00003F052FB01280DD12A480068012809D0CE
:101FF0009FED300A2A4880ED120A01202549086029
:1020000029490860264890ED120A80ED020A90EDF9
:10201000000AD0ED020A30EE600ADFED270AB4EEC6
:10202000E00AF1EE10FA03DD01202449086014E013
:102030001B4890ED000AD0ED020A30EE600ADFED99
:102040001E0AB4EEE00AF1EE10FA03D202201B4998
:10205000086002E0002019490860FFF73EFBFFF727
:1020600057F90F4890ED100A80ED010A1448B0F9B5
:10207000000000EE100AB8EEC00A094880ED030A1D
:10208000FFF798F90F4890ED000A0F4880ED000A1D
:1020900010BD000048000020640000200000024045
:1020A0003C01002000B888474C0000205000002070
:1020B00000FD3B49005043490000C8423000002069
:1020C000140000203C00002040000020002007E019
:1020D0009FEDFE0AFE4901EB800181ED000A401CE4
:1020E0000428F5DB002008E09FEDF80AF8491031DC
:1020F00001EB800181ED000A401C0428F4DB9FED18
:10210000F50AF34981ED080A9FEDF30A81ED090A0A
:102110009FEDF10A81ED0A0AB1EE060A81ED0B0A84
:102120009FEDEE0A81ED0C0A9FEDEC0A81ED0D0AA0
:102130009FEDEA0A81ED0E0A9FEDE80A81ED0F0A94
:102140009FEDE20A81ED100A9FEDE00A81ED110A90
:102150009FEDDE0A81ED120A9FEDDC0A81ED130A84
:10216000002008E09FEDD90AD949503101EB8001E8
:1021700081ED000A401C0428F4DB002008E09FEDFC
:10218000D30AD349603101EB800181ED000A401C84
:102190000428F4DB002008E09FEDCC0ACC49703124
:1021A00001EB800181ED000A401C0428F4DB0020D3
:1021B00008E09FEDC60AC649803101EB800181ED40
:1021C000000A401C0428F4DB002008E09FEDBF0A51
:1021D000BF49903101EB800181ED000A401C0428C9
:1021E000F4DB704710B52DED028BB94890ED000A75
:1021F000D0ED040A30EE600A80ED140A90ED140A66
:10220000D0ED180A30EE600AD0ED080A20EE200A60
:10221000D0ED0C0A90ED141A00EE810AD0ED140AEC
:1022200090ED181AF0EE001A41EEC10A90ED1C1A5A
:1022300070EE810A90ED101A01EE200AB0EE408A8D
:1022400090ED200A30EE080A80ED200A014691ED5B
:10225000200ABDEEC00A10EE100AA14A5142FEF754
:1022600065FF00EE100AB8EEC00A994880ED200A1A
:1022700090ED180A80ED1C0A90ED140A80ED180A02
:1022800098480088D8B9924890ED200AB5EEC00A67
:10229000F1EE10FA02DD90ED200A04E08C4890ED9A
:1022A000200AB1EE400ADFED900AB4EEE00AF1EE4A
:1022B00010FA04DD8D480068401C8C4908608B488A
:1022C0000068642814DB642088490860804991ED27
:1022D000200ABDEEC00A10EE100A854A5142FEF7F0
:1022E00025FF00EE100AB8EEC00A794880ED200AFA
:1022F000774890ED200AB5EEC00AF1EE10FA02DD43
:1023000090ED200A04E0724890ED200AB1EE400AF8
:10231000DFED750AB4EEE00AF1EE10FA05D273486B
:10232000006810B1002071490860BDEC028B10BD3F
:1023300010B52DED028B664890ED010AD0ED050A2F
:1023400030EE600A80ED150A90ED150AD0ED190AFD
:1023500030EE600AD0ED090A20EE200AD0ED0D0A19
:1023600090ED151A00EE810AD0ED150A90ED191ABC
:10237000F0EE001A41EEC10A90ED1D1A70EE810ACE
:1023800090ED111A01EE200AB0EE408A90ED210A7C
:1023900030EE080A80ED210A014691ED210ABDEEDA
:1023A000C00A10EE100A4E4A5142FEF7BFFE00EE80
:1023B000100AB8EEC00A464880ED210A90ED190ACD
:1023C00080ED1D0A90ED150A80ED190A45484088F8
:1023D000D8B93F4890ED210AB5EEC00AF1EE10FAE7
:1023E00002DD90ED210A04E0394890ED210AB1EEBA
:1023F000400ADFED3D0AB4EEE00AF1EE10FA04DD2A
:102400003C480068401C3B4908603A480068642822
:1024100014DB6420374908602D4991ED210ABDEE97
:10242000C00A10EE100A324A5142FEF77FFE00EE5B
:10243000100AB8EEC00A264880ED210A244890ED23
:10244000210AB5EEC00AF1EE10FA02DD90ED210A84
:1024500004E01F4890ED210AB1EE400ADFED220AA8
:10246000B4EEE00AF1EE10FA05D22248006810B18D
:10247000002020490860BDEC028B10BD10B52DED89
:10248000028B134890ED020AD0ED060A30EE600A86
:1024900080ED160A90ED160AD0ED1A0A30EE600AA9
:1024A000D0ED0A0A20EE200AD0ED0E0A90ED161AA1
:1024B00000EE810AD0ED160A90ED1A1AF0EE001A1D
:1024C00041EEC10A90ED1E1A16E000000000000067
:1024D0008C0100209A997940CDCC8C40CDCC4C3DDC
:1024E00038CDFFFF040000200000FA456C000020FA
:1024F000C0E0FFFF7000002070EE810A90ED121A1C
:1025000001EE200AB0EE408A90ED220A30EE080A71
:1025100080ED220A014691ED220ABDEEC00A10EEBE
:10252000100AFA4A5142FEF701FE00EE100AB8EE18
:10253000C00AF74880ED220A90ED1A0A80ED1E0AC3
:1025400090ED160A80ED1A0AF2488088D8B9F04852
:1025500090ED220AB5EEC00AF1EE10FA02DD90ED20
:10256000220A04E0EA4890ED220AB1EE400A5FED4B
:10257000220AB4EEE00AF1EE10FA04DDE648006843
:10258000401CE5490860E4480068642814DB6420C6
:10259000E1490860DE4991ED220ABDEEC00A10EE65
:1025A000100ADE4A5142FEF7C1FD00EE100AB8EEF5
:1025B000C00AD74880ED220AD54890ED220AB5EE30
:1025C000C00AF1EE10FA02DD90ED220A04E0D048D4
:1025D00090ED220AB1EE400A5FED3D0AB4EEE00A4A
:1025E000F1EE10FA05D2CC48006810B10020CA49BB
:1025F0000860BDEC028B10BD10B52DED028BC448F8
:1026000090ED030AD0ED070A30EE600A80ED170A5C
:1026100090ED170AD0ED1B0A30EE600AD0ED0B0AE0
:1026200020EE200AD0ED0F0A90ED171A00EE810A75
:10263000D0ED170A90ED1B1AF0EE001A41EEC10A18
:1026400090ED1F1A70EE810A90ED131A01EE200A28
:10265000B0EE408A90ED230A30EE080A80ED230A9E
:10266000014691ED230ABDEEC00A10EE100AA74AFA
:102670005142FEF75BFD00EE100AB8EEC00AA44816
:1026800080ED230A90ED1B0A80ED1F0A90ED170ADA
:1026900080ED1B0A9F48C088D8B99D4890ED230A59
:1026A000B5EEC00AF1EE10FA02DD90ED230A04E067
:1026B000974890ED230AB1EE400A5FED750AB4EE3B
:1026C000E00AF1EE10FA04DD95480068401C9449D8
:1026D000086093480068642814DB6420904908600F
:1026E0008B4991ED230ABDEEC00A10EE100A8B4A09
:1026F0005142FEF71BFD00EE100AB8EEC00A8448F6
:1027000080ED230A824890ED230AB5EEC00AF1EE6F
:1027100010FA02DD90ED230A04E07D4890ED230AD3
:10272000B1EE400A5FED900AB4EEE00AF1EE10FA65
:1027300005D27B48006810B1002079490860BDECE3
:10274000028B10BD10B5774890ED000A7648D0EDA9
:10275000000A30EE200A7548D0ED000A30EE200A5B
:10276000734880ED000A6D4A514290ED000ABDEEBB
:10277000C00A10EE100AFEF7D9FC00EE100AB8EEFF
:10278000C00A6B4880ED000A664890ED000A664872
:10279000D0ED000A30EE600AB1EE400A6348D0ED99
:1027A000000A30EE200A634880ED000A5B4A51427D
:1027B00090ED000ABDEEC00A10EE100AFEF7B6FC5E
:1027C00000EE100AB8EEC00A5A4880ED000A5548DB
:1027D00090ED000A5448D0ED000A30EE600A5348EC
:1027E000D0ED000A30EE200A534880ED000A4B4A33
:1027F000514290ED000ABDEEC00A10EE100AFEF73D
:1028000095FC00EE100AB8EEC00A4B4880ED000AB5
:10281000444890ED000A4448D0ED000A30EE200A0A
:10282000B1EE400A4148D0ED000A30EE200A43489C
:1028300080ED000A394A514290ED000ABDEEC00A0F
:1028400010EE100AFEF772FC00EE100AB8EEC00A95
:102850003A4880ED000A10BD10B53948007A0128C9
:102860007AD1384800780028FAD13548408A402883
:1028700005D19FED350A2D4880ED000A15E030485E
:10288000408A802805D19FED310A284880ED000A52
:102890000BE02B484089C82110FB01F000EE100A24
:1028A000B8EEC00A214880ED000A2548408A082871
:1028B00069D007DC072871D2DFE800F0121D5ACB7F
:1028C00073A0950041286AD004DC092875D00A2835
:1028D00064D17DE081286FD0B0F5804F5ED13CE0BF
:1028E0009FED1B0A104880ED000A9FED190A0D4864
:1028F00080ED000AAEE09FED160A0B4880ED000A5D
:102900009FED140A074880ED000AA3E038CDFFFFD1
:102910008C0100200400002074000020C0E0FFFFB4
:1029200078000020900000208C00002094000020FF
:102930007C0000208000002084000020880000200F
:1029400014010020B400002000007AC500007A4580
:10295000000000000000FA4517E11FED030AFE48E1
:1029600080ED000A9FEDFD0AFD4880ED000A71E050
:102970001FED090AF84880ED000A9FEDFA0AF848B1
:1029800080ED000A66E01FED0D0AF34880ED000AB5
:102990001FED110AF24880ED000A5BE059E038E0D3
:1029A0000BE09FEDF10AEC4880ED000A1FED180ADC
:1029B000EB4880ED000A4DE03BE01FED1A0AE648C7
:1029C00080ED000A1FED1D0AE54880ED000A41E098
:1029D0001FED200AE04880ED000A9FEDE30AE04881
:1029E00080ED000A36E09FEDE00ADB4880ED000A4A
:1029F0009FEDDD0ADA4880ED000A2BE09FEDDA0A50
:102A0000D54880ED000A1FED2D0AD54880ED000A5B
:102A100020E01FED310AD04880ED000A1FED330A97
:102A2000CF4880ED000A1FED380AD04880ED000A3B
:102A300010E01FED390AC84880ED000A1FED3B0A7F
:102A4000C74880ED000A1FED3F0AC84880ED000A24
:102A500000E000BF00BFC648408A012805D1C54834
:102A6000006810B90120C3490860C2480068012805
:102A700003D0C0480068022818D1BD48408A012808
:102A800014D1BD480068401CBB4908600846006876
:102A9000642802DA0220B7490860B7480068642851
:102AA00004DD0020B3490860B3490860B1480068FC
:102AB000022803D0AF480068032817D1AC48408AE9
:102AC000A0B9AD480068401CAB49086008460068E2
:102AD000C82802DA0320A7490860A7480068C82868
:102AE00004DD0020A3490860A3490860A1480068EC
:102AF000032809D19E48408A012805D104209D4918
:102B0000086000209C4908609948408AB0F5005F41
:102B100005D09748408A42F20101884202D1002044
:102B2000944908609248408A502805D1934800682B
:102B300010B901209149086090480068012819D116
:102B40008F480068401C8E4908601FED810A874845
:102B500080ED000A0846006840F23A21884209DD0B
:102B60001FED850A814880ED000A00208449086035
:102B70008249086083480078022806D17B4890ED9E
:102B8000000AB1EE400A80ED000A7948007A032875
:102B900026D177488088A0F5806000EB800000EEA9
:102BA000100AB8EEC00A6C4880ED000A7048C08870
:102BB000A0F5806000EB800000EE100AB8EEC00ABD
:102BC000674880ED000A6A480088A0F5806000EB45
:102BD000800000EE100AB8EEC00A644880ED000ADA
:102BE0006948006801280DD15B4890ED000AB1EEFC
:102BF000400A80ED000A5A4890ED000AB1EE400A02
:102C000080ED000A5B480068042835D15F4A5142D4
:102C1000514890ED000ABDEEC00A10EE100AFEF712
:102C200085FA00EE100AB8EEC00A4B4880ED000AA3
:102C3000564A51424A4890ED000ABDEEC00A10EED5
:102C4000100AFEF773FA00EE100AB8EEC00A444804
:102C500080ED000A4E4A5142444890ED000ABDEE14
:102C6000C00A10EE100AFEF761FA00EE100AB8EE84
:102C7000C00A3E4880ED000A9FED460AFEF73CFB85
:102C80004548D0ED000AB4EEE00AF1EE10FA0FD993
:102C90003D48006801280BD09FED400AFEF72CFB51
:102CA0003D48D0ED000AB4EE600AF1EE10FA35D1DD
:102CB0003B4A5142284890ED000ABDEEC00A10EE92
:102CC000100AFEF733FA00EE100AB8EEC00A2248E6
:102CD00080ED000A324A5142214890ED000ABDEED3
:102CE000C00A10EE100AFEF721FA00EE100AB8EE44
:102CF000C00A1B4880ED000A294A51421B4890ED4A
:102D0000000ABDEEC00A10EE100AFEF70FFA00EE40
:102D1000100AB8EEC00A154880ED000A174800688E
:102D2000012804D11FEDF80A104880ED000A104870
:102D3000408AB0F5007F08D00D48408AB0F5807F0A
:102D400003D00B48408A122833D10020154908606F
:102D50001549086015492BE08C000020008054457F
:102D60009000002000E0ABC50000FAC594000020F0
:102D7000140100209C000020A0000020B8000020CA
:102D8000BC0000201E000020A400002084EAFFFFF9
:102D900048F4FFFF000020433C0100200000704287
:102DA00018FCFFFFB0000020AC00002060000020F5
:102DB0000860FC48006801287DD1FB490870FB4889
:102DC000408A042803D10120F949086006E0F74849
:102DD000408A082802D10220F5490860F5480068B9
:102DE00000BBF348006801281CD1F3480078012893
:102DF00003D1F2480078012838D09FEDF10AF1485C
:102E000080ED000A9FEDF00AF04880ED000A9FED8A
:102E1000F00AF04880ED000A0120E6490860EE491A
:102E2000086023E0E348006800BBE148006802282E
:102E30001CD1E1480078012803D1E048007801283E
:102E400014D09FEDE60ADF4880ED000A9FEDDE0A10
:102E5000DE4880ED000A9FEDDE0ADE4880ED000AC4
:102E60000120D44908600220DB490860D14800688D
:102E700060B9D1480078012808D1D04800780128ED
:102E800004D10220CB490860D5490860C9480068D0
:102E900001281DD1C8480078012819D1C7480078F9
:102EA000012815D19FEDCA0AC64880ED000A9FEDA2
:102EB000C80AC64800E0A1E080ED000A9FEDC40A00
:102EC000C44880ED000A0220BA490860C44908607D
:102ED000C448007801282FD1B648006802282BD1B9
:102EE000B348006840B3B2480068022808D19FED9B
:102EF000BB0AB44880ED000A0220B74908600BE025
:102F0000AB480068012807D19FEDAD0AAD4880EDC0
:102F1000000A0120B04908609FEDAB0AAB4880ED84
:102F2000000A9FEDAB0AAB4880ED000A0020AD49D6
:102F300008700120AA490860A948006801280BD13F
:102F40009D48007840B99D48007828B90020A549DF
:102F500008700220A2490860A248007870B996481B
:102F6000007801280AD195480078012806D19C48AC
:102F70000068022802D101209B4908609A48006835
:102F800001283ED199480068401C98490860924841
:102F90000068012805D19FED910A8A4880ED000A5A
:102FA00008E08D480068022804D19FED850A854815
:102FB00080ED000A8D480068962822DD9FED840A86
:102FC000804880ED000A9FED820A804880ED000A6B
:102FD0009FED7F0A7F4880ED000A0222002108460B
:102FE000FDF78AFC00207F4908707D4908607F4911
:102FF00008607D4908607849086002E000206A495D
:103000000870FFF79FFB68480078E0BB7848D0ED78
:10301000000AB0EE600ADFED771AB2EE0E1A7648BB
:10302000D0ED000AFEF738F8714880ED000AD0EDC7
:10303000010AB0EE600ADFED6F1AB2EE0E1A6F48A9
:10304000D0ED000AFEF728F8694880ED010AD0EDBE
:10305000020AB0EE600ADFED671AB2EE0E1A684897
:10306000D0ED000AFEF718F8614880ED020AD0EDB5
:10307000030AB0EE600ADFED5F1AB2EE0E1A614885
:10308000D0ED000A00E005E0FEF706F8584880EDB4
:10309000030A1BE044480078012817D1564890EDF8
:1030A000000A534880ED000A544890ED000A504849
:1030B00080ED010A524890ED000A4D4880ED020A69
:1030C000504890ED000A4A4880ED030A484890EDC8
:1030D000000A4D4880ED000A454890ED010A4A4833
:1030E00080ED010A424890ED020A474880ED020A4D
:1030F0003F4890ED030A444880ED030A4348B0F985
:10310000000000EE100AB8EEC00A3F4880ED040A45
:103110003E48B0F9020000EE100AB8EEC00A3A4884
:1031200080ED050A3948B0F9040000EE100AB8EE47
:10313000C00A354880ED060A3448B0F9060000EEB2
:10314000100AB8EEC00A304880ED070AFFF74AF8C7
:10315000FFF7EEF8FFF792F9FFF74EFA2A4C94EDDD
:10316000230ABDEEC00A10EE104A23B2264C94ED9D
:10317000220ABDEEC00A10EE104A22B2224C94ED93
:10318000210ABDEEC00A10EE104A21B21E4C94ED89
:10319000200ABDEEC00A10EE104A20B2FDF72CFA4C
:1031A00010BD000060000020B400002014010020C9
:1031B000AC000020B00000201C0000201D000020FA
:1031C000000048C48C00002000008C4290000020C9
:1031D0000000000094000020CC00002000004844C3
:1031E000A80000201E000020C4000020C80000200D
:1031F0002C02002000000C427C00002080000020F7
:1032000084000020880000208C01002004000020A1
:103210009FEDFE0AFE4880ED000A9FEDFC0A80ED5E
:10322000020A9FEDFC0A80ED040A9FEDF80A80ED8A
:10323000060A9FEDF60A80ED080A9FEDF40A80ED7C
:103240000A0A9FEDF20A80ED0C0A9FEDF00A80ED6C
:103250000E0A9FEDEE0A80ED120A9FEDEC0A80ED5A
:10326000100A9FEDEA0A80ED010A9FEDE80A80ED61
:10327000030A9FEDE90A80ED050A9FEDE40A80ED5F
:10328000070A9FEDE20A80ED090A9FEDE00A80ED52
:103290000B0A9FEDDE0A80ED0D0A9FEDDC0A80ED42
:1032A0000F0A9FEDDA0A80ED130A9FEDD80A80ED30
:1032B000110A704710B5D64890ED000AD0ED020A09
:1032C00030EE600A80ED0A0A90ED0E0AD0ED0A0A8F
:1032D00030EE200A80ED0E0A90ED040AD0ED0A0AC5
:1032E00020EE200AD0ED060A90ED0E1A00EE810ABB
:1032F000D0ED0A0A90ED0C1A70EEC10A90ED081A92
:1033000001EE200A80ED100A014691ED100ABDEE93
:10331000C00A10EE100AC14A5142FDF707FF00EE45
:10332000100AB8EEC00ABA4880ED100A90ED0A0AF9
:1033300080ED0C0A10BD10B5B54890ED030AB5EE4E
:10334000C00AF1EE10FA02DD90ED030A04E0B04885
:1033500090ED030AB1EE400AF1EE000AB4EEE00A85
:10336000F1EE10FA04D89FEDA90AA94880ED030AEE
:10337000A74890ED010AD0ED030A30EE600A80ED17
:103380000B0A90ED0F0AD0ED0B0A30EE200A80ED0B
:103390000F0A014691ED0F0ABDEEC00A10EE100AA9
:1033A0009F4A5142FDF7C2FE00EE100AB8EEC00A75
:1033B000974880ED0F0A90ED050AD0ED0B0A20EE3C
:1033C000200AD0ED070A90ED0F1A00EE810AD0ED29
:1033D0000B0A90ED0D1A70EEC10A90ED091A01EE7C
:1033E000200A80ED110A014691ED110ABDEEC00AD6
:1033F00010EE100A8B4A5142FDF798FE00EE100ABB
:10340000B8EEC00A824880ED110A90ED0B0A80EDFB
:103410000D0A85480088D8B97D4890ED110AB5EEAF
:10342000C00AF1EE10FA02DD90ED110A04E07848CE
:1034300090ED110AB1EE400ADFED7C0AB4EEE00A2D
:10344000F1EE10FA04DD7A480078401C78490870E3
:1034500077480078962814DB9620754908706C49E7
:1034600091ED110ABDEEC00A10EE100A714A5142E8
:10347000FDF75CFE00EE100AB8EEC00A644880ED6D
:10348000110A634890ED110AB5EEC00AF1EE10FA88
:1034900002DD90ED110A04E05D4890ED110AB1EEF5
:1034A000400ADFED620AB4EEE00AF1EE10FA05D24E
:1034B0005F48007810B100205D49087010BD10B55C
:1034C0005D48007860BB9FED5D0A514880ED010AC0
:1034D0005548B0F9000000EE100AB8EEC00A4C489A
:1034E00080ED030AFFF727FF4F480088C0B948481E
:1034F00090ED110ADFED520AB4EEE00AF1EE10FA97
:103500000ED250480078401C4E490870084600789A
:10351000322805DD0120484908700020494908701B
:1035200045480078012816D14748B0F9000000EE60
:10353000100AB8EEC00A454880ED000A4248B0F9CA
:10354000000000EE100AB8EEC00A414880ED000A03
:1035500002203949087038480078022807D19FEDC9
:103560003D0A2B4880ED000A032033490870324899
:10357000007803287AD13448B0F9000000EE100A30
:10358000B8EEC00A314880ED000A3348408AB0F5F1
:10359000006F0FD13148007860B9012030490860D0
:1035A0002E4908709FED2F0A194880ED000A00206F
:1035B0002D4908702848408AB0F5006F06D027488A
:1035C0000078012802D10220244908702248408A4C
:1035D000B0F5006F0FD12148007802280BD19FED84
:1035E0000B0A0B4880ED070A9FED080A80ED000AE0
:1035F00003201A4908701848408AB0F5006F38D087
:1036000016480078032834D1042030E00000000080
:103610003C020020E17A943E9A99194030F8FFFF6D
:1036200048F4FFFFC0E0FFFF1800002000409C4569
:10363000DC00002078ECFFFFD900002000007AC4F5
:103640000000FAC4DD0000201A000020D000002095
:10365000D40000200058984714010020DA00002010
:10366000A400002000C0DA46DB000020ABE0564991
:1036700008705648408AB0F5006F06D1524800786D
:10368000042802D10520504908705048408AB0F5FE
:10369000006F0ED04C48007805280AD100204C4914
:1036A0000860042200210846FDF726F9002046495B
:1036B00008704648408AB0F5805F0BD145480078D5
:1036C00040B901204249086000203F4908700120AC
:1036D000404908703D48408AB0F5805F06D03D48BB
:1036E0000078012802D102203A4908703748408A00
:1036F000B0F5805F0FD13748007802280BD19FEDDD
:10370000360A364880ED070A1FED2E0A80ED000AC2
:103710000320304908702D48408AB0F5805F06D0FC
:103720002C480078032802D104202A490870274831
:10373000408AB0F5805F09D126480078042805D179
:103740000020234908600520224908701F48408A4C
:10375000B0F5805F0BD01F480078052807D1042200
:1037600000210846FDF7C8F800201A4908701C48D7
:10377000D0ED000A1B4890ED000AFDF73DFC17480C
:10378000D0ED120A30EE200A80ED120A90ED120AF6
:1037900080ED020AFFF78EFD104890ED100A80EDD3
:1037A000010A1148B0F9000000EE100AB8EEC00A94
:1037B0000A4880ED030AFFF7BEFD094890ED000AB4
:1037C000084880ED000A10BDDA0000201401002036
:1037D000A4000020DB000020CDCCCC3D3C0200202A
:1037E000D0000020D40000201800002032490143FE
:1037F000324A1160704770B5002100230F22C4784F
:103800001CB32E4C246804F4E064C4F5E064C4F3F3
:103810000721C1F10404E3B20A4144789C40E1B2BB
:103820008478144021430C07210E254C05786155FE
:10383000047804F01F050124AC4005786D11AD003B
:1038400005F1E025C5F8004109E0047804F01F0502
:103850000124AC401B4D0678761145F8264070BD1A
:10386000194A0A400243154B1B1F1A60704739B1B1
:10387000124A121D12680243104B1B1D1A6006E00B
:103880000E4A121D126882430C4B1B1D1A607047B2
:10389000042808D14FF0E021096941F004014FF0FC
:1038A000E022116107E04FF0E021096921F00401F5
:1038B0004FF0E022116170470000FA050CED00E0C6
:1038C00000E400E080E100E080FFFF1F10B5044647
:1038D000FE48844208D10121084601F07BF800210E
:1038E000012001F077F89DE0B4F1804F08D101216B
:1038F000084601F05EF80021012001F05AF891E03D
:10390000F348844208D10121022001F052F800213D
:10391000022001F04EF885E0EE48844208D10121F2
:10392000042001F046F80021042001F042F879E07B
:10393000E948844208D10121082001F03AF8002129
:10394000082001F036F86DE0E448844208D10121F6
:10395000102001F02EF80021102001F02AF861E07B
:10396000DF48844208D10121202001F022F8002103
:10397000202001F01EF855E0DA48844208D10121E8
:10398000022001F027F80021022001F023F849E08D
:10399000D548844209D10121080401F01BF8002117
:1039A0004FF4803001F016F83CE0D048844209D151
:1039B0000121480401F00EF800214FF4003001F01D
:1039C00009F82FE0CA48844209D10121880401F096
:1039D00001F800214FF4802000F0FCFF22E0C548F0
:1039E000844208D10121402000F0E3FF0021402063
:1039F00000F0DFFF16E0C048844208D1012180209A
:103A000000F0D7FF0021802000F0D3FF0AE0BB4880
:103A1000844207D10121801500F0CBFF0021A015C1
:103A200000F0C7FF10BD00220288A84B98420ED0BC
:103A3000AC4B98420BD0B0F1804F08D0A44B9842C9
:103A400005D0A44B984202D0A34B984204D14FF624
:103A50008F731A404B881A43A04B984207D0A04B53
:103A6000984204D04FF6FF431A400B891A43028054
:103A70004B68C3620B880385944B984202D0994BE4
:103A8000984201D18B7A03860123838270474FF0DD
:103A9000FF314160002101800181418081727047C6
:103AA0000185828270470A46002101884FF68F7394
:103AB000194011430180704741627047C1627047ED
:103AC0000146486A70470146088D704721B1028857
:103AD00042F00202028004E002884FF6FD731A40B1
:103AE0000280704721B1028842F00402028004E0A3
:103AF00002884FF6FB731A400280704721B102889A
:103B000042F08002028004E002884FF67F731A4080
:103B10000280704702884FF6F7731A4002800288CD
:103B20000A430280704702884FF6FF431A40028022
:103B300002880A430280704721B1028842F00102E4
:103B4000028004E002884FF6FE731A40028070473C
:103B500070B5002400220023058C4FF6FE76354018
:103B60000584028C8388048B4FF68F752C40B51E1C
:103B70002C400D882C43751E2A408D892A434D8880
:103B80002A43524DA84202D0564DA84213D14FF6B7
:103B9000F7752A40CD892A434FF6FB752A408D8858
:103BA0002A434FF6FF652B404FF6FF552B400D8AF9
:103BB0002B434D8A2B43838004838D6845630284A5
:103BC00070BD70B5002400220023058C4FF6EF76FF
:103BD00035400584028C8388048B48F6FF752C40A1
:103BE0004FF6FF452C400D884FF6FF7606EA052577
:103BF0002C434FF6DF752A408D8906EA05152A43C6
:103C00004D8806EA05152A43304DA84202D0354DAD
:103C1000A8421DD14FF67F752A40CD894FF6FF7619
:103C200006EA05152A434FF6BF752A408D8806EA35
:103C300005152A434FF6FF352B404FF2FF752B40F9
:103C40000D8A06EA85052B434D8A06EA85052B4336
:103C5000838004838D688563028470BD70B5002401
:103C600000220023058C4FF6FF6635400584028C48
:103C70008388848B4FF68F752C404FF6FC752C4053
:103C80000D882C434FF6FF552A408D894FF6FF765D
:103C900006EA05252A434D8806EA05252A430B4DE9
:103CA000A84202D00F4DA84238D14FF2FF752A40EA
:103CB000CD894FF6FF7606EA05252A434FF6FF35F4
:103CC0002A408D8806EA05252A4319E000000140B4
:103CD0000004004000080040000C004000100040BC
:103CE0000014004000040140004001400044014035
:103CF0000048014000180040001C00400020004027
:103D00004EF6FF752B404DF6FF752B400D8A06EAE7
:103D100005152B434D8A06EA05152B4383808483C2
:103D20008D68C563028470BD70B500220023002435
:103D3000058C4EF6FF7635400584038C8488828B93
:103D400048F6FF752A404FF6FF452A400D884FF68A
:103D5000FF7606EA05252A434DF6FF752B408D892F
:103D600006EA05352B434D8806EA05352B43FE4D03
:103D7000A84202D0FD4DA84208D14BF6FF752C4059
:103D80000D8A4FF6FF7606EA85152C4384808283E0
:103D90008D680564038470BD0021018041808180AD
:103DA00081608181C18101824182704770B5034683
:103DB000002000241846183001258D40ACB21D8C1F
:103DC000A5431D8409B108290AD100EB61000568EB
:103DD0004FF68F76354005600568154305600FE0A6
:103DE0000D1FC5F34E052844056848F6FF7635409B
:103DF000056005684FF6FF7606EA02263543056042
:103E000070BD4163704781637047C163704701644F
:103E100070470A460021018B4FF68F7319401143FA
:103E2000018370470A460021018B48F6FF73194051
:103E30004FF6FF7303EA02231943018370470A46D2
:103E40000021818B4FF68F73194011438183704796
:103E50000A460021818B48F6FF7319404FF6FF7325
:103E600003EA02231943818370470A460021018B2C
:103E70004FF6F77319401143018370470A4600213A
:103E8000018B4FF2FF7319404FF6FF7303EA0223D1
:103E90001943018370470A460021818B4FF6F7735F
:103EA00019401143818370470A460021818B4FF2EC
:103EB000FF7319404FF6FF7303EA0223194381830E
:103EC00070470A460021018B4FF6FB7319401143DE
:103ED000018370470A460021018B4FF6FF331940DA
:103EE0004FF6FF7303EA02231943018370470A4622
:103EF0000021818B4FF6FB7319401143818370477A
:103F00000A460021818B4FF6FF3319404FF6FF73AD
:103F100003EA02231943818370470A460021018B7B
:103F20004FF67F7319401143018370470A46002101
:103F3000018BC1F30E014FF6FF7303EA022319430D
:103F4000018370470A460021818B4FF67F73194029
:103F50001143818370470A460021818BC1F30E0112
:103F60004FF6FF7303EA02231943818370470A4621
:103F70000021018C4FF6FD731940114301847047F5
:103F80000A460021018C4FF6F77319401143018452
:103F900070470A460021018C4FF6DF7319404FF637
:103FA000FF7303EA02131943018470470A46002194
:103FB000018C4FF67F7319404FF6FF7303EA02132B
:103FC0001943018470470A460021018C4FF6FF53C4
:103FD00019404FF6FF7303EA022319430184704727
:103FE0000A460021018C4FF2FF7319404FF6FF7310
:103FF00003EA02231943018470470A460021018C19
:104000004DF6FF7319404FF6FF7303EA023319436D
:104010000184704730B5002301248C40A3B2048C86
:104020009C430484048C02FA01F5ADB22C43048451
:1040300030BD30B5002304248C40A3B2048C9C43D3
:104040000484048C02FA01F5ADB22C43048430BD23
:10405000828B4FF2FF331A408283828B4FF6FF73BD
:1040600003EA01231A4382837047F0B50C461546D4
:10407000002100220026078C4EF6FF7C07EA0C0781
:104080000784818B028C4FF6FF7707EA043640F6EF
:10409000FF4739404FF6FF7707EA052739434FF6C8
:1040A000FF7707EA0337394345F6FF773A4046F48E
:1040B00080573A4381830284F0BD828B4FF6F373BD
:1040C0001A408283828B0A4382837047F0B50C4684
:1040D0001546002100220026078C4FF6FF6C07EAE8
:1040E0000C070784818B028C4FF6FF7707EA0426C2
:1040F0004FF60C7739404FF6FF7707EA03172F4347
:1041000039434FF2FF573A4046F480773A43818370
:104110000284F0BD028B4FF2FF331A400283028B00
:104120004FF6FF7303EA01231A4302837047F0B589
:104130000C461546002100220026078C4FF6EF7C26
:1041400007EA0C070784018B028C4FF6FF7707EA1A
:10415000041640F6FF4739404FF6FF7707EA03376A
:1041600039434FF6FF7703E00000014000040140AF
:1041700007EA052739434FF65F773A4046F01007C4
:104180003A4301830284F0BD028B4FF6F3731A4069
:104190000283028B0A4302837047F0B50C46154632
:1041A00000210022068C4FF6FE773E400684018BEC
:1041B000028C4FF60C7631407E1C06EA03162E4325
:1041C00031434FF6F576324044F001063243018325
:1041D0000284F0BD70B505460C46208850B923898D
:1041E000A28861882846FFF7D8FFE1882846FFF7B4
:1041F000CBFF25E0208804280AD12389A288618882
:104200002846FFF794FFE1882846FFF783FF17E071
:10421000208808280AD12389A28861882846FFF7C8
:1042200055FFE1882846FFF748FF09E02389A28867
:1042300061882846FFF719FFE1882846FFF708FF45
:1042400070BD002101804180012181800021C18059
:10425000018170472DE9F04105460C4600260127F3
:10426000608808B9022600E00026A088012801D154
:10427000022700E001272088A0B92389A28861884D
:104280002846FFF78AFFE1882846FFF77DFF23894C
:104290003A4631462846FFF74AFFE1882846FFF7AD
:1042A00039FF13E02389A28861882846FFF73FFF82
:1042B000E1882846FFF72EFF23893A4631462846F3
:1042C000FFF76BFFE1882846FFF75EFFBDE8F0814E
:1042D0000146486B70470146886B70470146C86BC2
:1042E00070470146086C70470A884B881A438B88D0
:1042F0001A43CB881A430B891A434B891A438B897B
:104300001A43A0F844207047002101804180818039
:10431000C180018141818181704731B1B0F8442071
:1043200042F40042A0F8442005E0B0F84420C2F373
:104330000E02A0F84420704721B1828842F00402A6
:10434000828004E082884FF6FB731A4082807047B7
:1043500021B1828842F00102828004E082884FF617
:10436000FE731A40828070471AB183890B438381A0
:1043700002E083898B4383817047818270470246C4
:104380000020138A0B400BB1012000E00020704791
:10439000CA430282704730B5024600200023002441
:1043A000158A05EA0103958905EA010413B10CB1E8
:1043B000012000E0002030BDCA430282704741EA7C
:1043C0000203A0F8483070471AB183890B438381F8
:1043D00002E083898B438381704721B1828842F058
:1043E0000802828004E082884FF6F7731A408280C8
:1043F000704701894FF6F8721140018170470A46F3
:10440000002101894FF68F731940114301817047D4
:1044100030B504460D4629462046FFF7F0FF2089B7
:1044200040F00700208130BD2DE9F04104460D46E3
:1044300016461F46602D06D13B46012231462046D6
:10444000FFF775FE05E03B46012231462046FFF7A7
:10445000A4FE29462046FFF7D2FF208940F007003E
:104460002081BDE8F08130B50C4600210189C9B238
:104470004FF6FF7505EA03251543254329430181BE
:1044800030BD2DE9F04105460E46174698460024FA
:1044900043463A4631462846FFF7E5FF2C894FF65A
:1044A000F870044044F007044FF68F70044044F065
:1044B00070042C81BDE8F081F0B504460D46164627
:1044C0001F463B46324629462046FFF7CCFF20894F
:1044D00040F480402081F0BD82884FF68F731A40EF
:1044E000828082880A438280704702894FF6F8737F
:1044F0001A40028102890A430281704702894FF6FD
:104500007F731A40028102890A4302817047F0B525
:104510000C4615461E460021002200230189028B0D
:10452000038C4FF6F877394021434FF6FC473A4069
:1045300040F201173A434FF6DD773B404FF6FF77E5
:1045400007EA06172F433B43018102830384F0BD32
:1045500021B1828842F08002828004E082884FF696
:104560007F731A4082807047A0F850107047000097
:10457000FA48006840F00100F84908600020F74957
:1045800008310860F5480068F5490840F3490860BB
:10459000F448091D0860081F006820F48020091FE6
:1045A00008600020ED490C31086070470021EB4A9B
:1045B000921C117011460870704710B50146002218
:1045C000002300204A11012A02D1E44C236808E0AC
:1045D000022A03D1E14C7034236802E0DF4C7434CA
:1045E000236801F01F02012494401C400CB10120FB
:1045F00000E0002010BD38B5002000900024002508
:1046000000BF3120FFF7D9FF05460098401C0090FD
:104610000098B0F5A06F01D0002DF2D03120FFF747
:10462000CCFF08B1012400E00024204638BD01463B
:104630000020CA4A106820F0F80040EAC10010606B
:104640007047C949086070470021C44A7032117030
:104650001170012802D004280AD104E00121BF4AC8
:104660007032117005E00521BC4A7032117000E013
:1046700000BF00BF7047BD490860704770B5049C1B
:1046800041EA82150126C6EB530645EA0645054375
:1046900045EA0465B14E361D356070BDB249086605
:1046A0007047820142EA0172AC4B84331A60704752
:1046B000AD4988667047AC49C8647047024600201F
:1046C000A64B0833186820F0EC6042EA0103184357
:1046D000A24B083318607047024600209F4B0833F6
:1046E000186820F0784042EA010318439B4B0833D6
:1046F0001860704701460020984A0832106820F080
:10470000030008431060704794480830006800F0C8
:104710000C00704701460020904A0832106820F0D3
:10472000F000084310607047014600208B4A0832B1
:10473000106820F4E05008431060704701460020E4
:10474000864A0832106820F4604040EAC1001060D8
:104750007047F0B500210022002402250026022324
:104760007E4F08373F6807F00C0121B1042905D0BE
:10477000082937D105E07E4F076036E07D4F07609E
:1047800033E0764F3F1D3F68C7F38056734F3F1DA0
:104790003F6807F03F036EB1764FB7FBF3F7DFF8E2
:1047A000BCC10CF1040CDCF800C0CCF3881C07FB86
:1047B0000CF40CE06E4FB7FBF3F7DFF8A0C10CF17F
:1047C000040CDCF800C0CCF3881C07FB0CF4634F2E
:1047D0003F1D3F68C7F301477F1C7D00B4FBF5F721
:1047E000076002E0624F076000BF00BF5B4F083701
:1047F0003F6807F0F00109095F4F7A5C0768D7400E
:104800004760564F08373F6807F4E051890A5A4F0E
:104810007A5C4768D7408760504F08373F6807F495
:104820006041490B544F7A5C4768D740C760F0BD80
:10483000002100F44072B2F5407F0AD1474A0832A5
:10484000116821F4F8114D4A02401143434A0832DD
:104850001160424A70321268C0F30B031A433F4B97
:1048600070331A60704741494439086070473F49C6
:1048700040390860704742490860704739B1374A8B
:10488000303212680243354B30331A6006E0334A47
:10489000303212688243314B30331A60704739B17D
:1048A0002E4A3432126802432C4B34331A6006E02D
:1048B0002A4A343212688243284B34331A607047D4
:1048C00039B1264A383212680243244B38331A6011
:1048D00006E0224A383212688243204B38331A608D
:1048E000704739B11D4A4032126802431B4B4033B6
:1048F0001A6006E0194A403212688243174B40336F
:104900001A60704739B1154A443212680243134B9A
:1049100044331A6006E0114A4432126882430F4B56
:1049200044331A60704739B10C4A1032126802439E
:104930000A4B10331A6006E0084A103212688243AC
:10494000064B10331A607047E1B1044A1432126802
:104950000243024B14331A6019E000000038024091
:10496000FFFFF6FE1030002400004742800E474251
:104970000024F40040787D01DE000020FFFCFF0FE2
:104980005C0147425B4A126882435A4B1A60704787
:1049900039B1584A121D12680243564B1B1D1A604A
:1049A00006E0544A121D12688243524B1B1D1A60C6
:1049B000704739B14F4A0C32126802434D4B0C33E9
:1049C0001A6006E04B4A0C3212688243494B0C33A2
:1049D0001A60704739B1474A103212680243454B9A
:1049E00010331A6006E0434A103212688243414B8A
:1049F00010331A60704739B13E4A3C3212680243A4
:104A00003C4B3C331A6006E03A4A3C32126882431F
:104A1000384B3C331A60704739B1364A403212681D
:104A20000243344B40331A6006E0324A4032126887
:104A30008243304B40331A60704739B12D4A4432BB
:104A4000126802432B4B44331A6006E0294A443271
:104A500012688243274B44331A60704739B1254AA4
:104A60004C3212680243234B4C331A6006E0214A51
:104A70004C32126882431F4B4C331A60704739B175
:104A80001C4A5032126802431A4B50331A6006E037
:104A9000184A503212688243164B50331A607047DE
:104AA00039B1144AD21F12780243124BDB1F1A701D
:104AB00006E0104AD21F127882430E4BDB1F1A7099
:104AC00070470C486030006840F0807009496031E0
:104AD0000860704701460020064A083A12680A40FA
:104AE0000AB1012000E0002070470249891F0870C8
:104AF000704700001438024010B50446FE48844256
:104B000009D101214806FFF754FF00214FF0007042
:104B1000FFF74FFF08E001218806FFF74AFF002159
:104B20004FF08060FFF745FF10BD30B50246002012
:104B30000023146824F002041460146844F0010493
:104B4000146000E05B1C546804F001041CB94FF6CB
:104B5000FF74A342F6D1546804F001040CB900209C
:104B60006CE08C79012C04D1146844F0800414604A
:104B700003E0146824F080041460CC79012C04D183
:104B8000146844F04004146003E0146824F0400406
:104B900014600C7A012C04D1146844F020041460D1
:104BA00003E0146824F0200414604C7A012C04D132
:104BB000146844F01004146003E0146824F0100436
:104BC00014608C7A012C04D1146844F00804146039
:104BD00003E0146824F008041460CC7A012C04D19A
:104BE000146844F00404146003E0146824F004041E
:104BF00014608C78A407CD7844EA05640D7944EA02
:104C000005444D7944EA05540D886D1E2C43D4614A
:104C1000146824F001041460002300E05B1C546855
:104C200004F001041CB14FF6FF74A342F6D154689E
:104C300004F001040CB1002000E0012030BD10B5EB
:104C40000021837A012202FA03F1AC4A126842F091
:104C50000102AA4B1A60A94A1C3212688A43A74B68
:104C60001C331A60027BCAB9A44A0C3212688A4308
:104C7000A24B0C331A604288C38842EA03439F4A1E
:104C80004032847A42F834300288838842EA03430F
:104C90009A4A4032847A02EBC4025360027B012AB2
:104CA00019D1964A0C3212680A43944B0C331A609D
:104CB0004288038842EA0343904A4032847A42F8A9
:104CC0003430C288838842EA03438C4A4032847A73
:104CD00002EBC4025360C27A3AB9884A121D1268C4
:104CE0008A43864B1B1D1A6006E0844A121D126817
:104CF0000A43824B1B1D1A60028932B97F4A143263
:104D000012688A437D4B14331A600289012A06D146
:104D10007A4A143212680A43784B14331A60427B81
:104D2000012A06D1754A1C3212680A43734B1C33A0
:104D30001A60724A126822F00102704B1A6010BDAC
:104D400000218171C171017241728172C1728170E1
:104D5000C17003210171022141710121018070475D
:104D60006649096841F00101644A11601146096809
:104D700043F60E729143614A11601146096841EA97
:104D8000002111601146096821F00101116070478E
:104D900021B1026842F48032026003E0026822F42A
:104DA000803202607047E1B1026842F08002026026
:104DB0004FF4C272125842F480734FF4C27213500F
:104DC0004FF4CA72125842F480734FF4CA721350EF
:104DD0004FF4D272125842F480734FF4D2721350CF
:104DE0001BE0026822F0800202604FF4C272125887
:104DF00022F480734FF4C27213504FF4CA721258E7
:104E000022F480734FF4CA7213504FF4D2721258C6
:104E100022F480734FF4D2721350704710B50246DB
:104E20000020936803F08063B3F1806F00D110E03D
:104E3000936803F00063B3F1006F01D1012008E033
:104E4000936803F08053B3F1805F01D1022000E04A
:104E50000420042879D002F5C07303EB00131B680B
:104E600003F0010402F5C07303EB00131C600B7A1E
:104E70007BB94B7A0C8843EA445302F5C07404EBC7
:104E800000142468234302F5C07404EB001423606B
:104E900010E00B7A4C6843EAC4034C7A234302F5D2
:104EA000C07404EB00142468234302F5C07404EBBF
:104EB000001423608B7A03F00F038B7202F5C0732A
:104EC00003EB00135B6823F00F0402F5C07303EBE0
:104ED00000135C6002F5C07303EB00135B688C7A0F
:104EE000234302F5C07404EB001463608B7B1C0643
:104EF0004B7B44EA034403E000640040006600404A
:104F00000B7B44EA0323CC7A234302F5C07404EB01
:104F10000014A3608B7C1C064B7C44EA03440B7C8E
:104F200044EA0323CC7B234302F5C07404EB001452
:104F3000E36002F5C07303EB00131B6843F0010448
:104F400002F5C07303EB00131C6010BD10B50246E0
:104F5000002321B1012907D002290FD109E090686F
:104F6000F94C00EA04030BE09068F84C00EA0403F3
:104F700006E09068F64C00EA040301E0002300BF5D
:104F800000BFF44C181BA34216D007DC83B16FF0AE
:104F90008060184470B1022818D111E0B0F5007F8C
:104FA00010D0ED4C204448B1B0F5003F0ED10BE0DD
:104FB00002230DE000230BE0002309E0002307E0BB
:104FC000012305E0012303E0012301E0002300BFEA
:104FD00000BFD8B210BD21B1012907D002290FD1DD
:104FE00009E0826842F0800282600AE0826842F44E
:104FF0000042826005E0826842F40002826000E0C4
:1050000000BF00BF704710B500F5D87303EB011364
:105010001B6803F004031372137A53B900F5D873B5
:1050200003EB01131B6840F2FF7404EA535313604F
:1050300009E000F5D87303EB01131B686FF06044BF
:1050400004EAD303536000F5D87303EB01131B6824
:1050500003F00203537200F5D87303EB01135B688E
:1050600003F00F03937200F5D87303EB01135B6831
:105070001B0AD37400F5D87303EB01139B68D3723A
:1050800000F5D87303EB01139B681C0A147300F539
:10509000D87303EB01139B681C0C547300F5D87391
:1050A00003EB01139B681B0E937300F5D87303EB9E
:1050B0000113DB68D37300F5D87303EB0113DB68CE
:1050C0001C0A147400F5D87303EB0113DB681C0C85
:1050D000547400F5D87303EB0113DB681B0E937453
:1050E00021B9C36843F02003C36003E0036943F0C0
:1050F0002003036110BD21B9C26842F02002C260E2
:1051000003E0026942F0200202617047024600207B
:1051100019B9D36803F0030006E0012903D113692C
:1051200003F0030000E00020704710B502460B4674
:1051300000204FF6FF71BBB9146824F0020444F05C
:105140000104146000E0491E546804F00304012CBB
:1051500001D00029F7D1546804F00304012C01D0D8
:10516000002032E0012030E0012B13D1146824F03C
:105170000304146000E0491E546804F003040CB1F9
:105180000029F8D1546804F003040CB100201CE09D
:1051900001201AE0022B17D1146824F0010444F016
:1051A0000204146000E0491E546804F00304022C59
:1051B00001D00029F7D1546804F00304022C01D077
:1051C000002002E0012000E0002010BD0146002088
:1051D0000A6822F0010242F002020A604A6802F004
:1051E0000302022A00D10120704701464FF6FF72E8
:1051F00000200B6823F002030B6000E0521E4B6896
:1052000003F00203022B01D1002AF7D14B6803F00F
:105210000203022B00D001207047014600208A695A
:1052200002F070007047014600208A69100E704736
:10523000014600208A69C2F3074070471AB14369EA
:105240000B43436102E043698B434361704710B5F0
:105250000246002001F4700343B19369C1F31304C3
:1052600023400BB101202DE000202BE001F08073E2
:1052700043B15368C1F3130423400BB1012021E073
:1052800000201FE001F0006343B19368C1F31304F1
:1052900023400BB1012015E0002013E001F0007362
:1052A00043B1D368C1F3130423400BB1012009E0DB
:1052B000002007E01369C1F3130423400BB1012060
:1052C00000E0002010BD0022244B994202D10023AF
:1052D000836111E0C1F3130201F000730BB1C260EE
:1052E0000AE001F080630BB1026105E001F00063A8
:1052F0000BB1826000E0426070470246002002EA83
:1053000001030BB1012000E00020704770B5044696
:105310000D46002660692840002872D0B5F5807FD0
:1053200069D01DDC082D42D006DC012D2DD0022DC8
:1053300031D0042D7FD134E0102D3ED0202D42D02D
:10534000402D78D145E00000030000040003000870
:1053500000000310000100080001FFF77000F030AA
:10536000B5F5004F61D009DCB5F5007F4AD0B5F541
:10537000806F4DD0B5F5006F5DD150E0B5F5803F41
:105380002DD0B5F5003F56D12FE0A0685549FFF765
:10539000B4FF064651E0E0680321FFF7AEFF064682
:1053A0004BE0E0680821FFF7A8FF064645E0E0680B
:1053B0001021FFF7A2FF06463FE020690321FFF717
:1053C0009CFF064639E020690821FFF796FF064654
:1053D00033E020691021FFF790FF06462DE060685A
:1053E0000821FFF78AFF064627E060681021FFF7D3
:1053F00084FF064621E0A0690121FFF77EFF0646F3
:105400001BE01BE0A0690221FFF777FF064614E0CE
:10541000A0690421FFF771FF06460EE00BE0A069CA
:105420007021FFF76AFF064607E060680421FFF776
:1054300064FF064601E0002600BF00E0002630467B
:1054400070BDB1F5007F3AD00FDC202928D006DCF2
:1054500001291CD004291DD0082940D11DE0402974
:1054600021D0B1F5807F3AD126E0B1F5004F31D09F
:1054700006DCB1F5806F25D0B1F5006F2FD124E0A7
:10548000B1F5803F12D0B1F5003F28D111E0154AA7
:10549000826025E00822C26022E01022C2601FE084
:1054A000082202611CE01022026119E00822426019
:1054B00016E01022426013E00422426010E0042251
:1054C00042600DE0042242600AE000228261042270
:1054D000426005E0002282610422426000E000BFD9
:1054E00000BF70470101010010B504468C4884429A
:1054F00008D101210846FFF716FA00210120FFF725
:1055000012FA5EE08748844208D101210220FFF7A9
:105510000AFA00210220FFF706FA52E0824884428C
:1055200008D101210420FFF7FEF900210420FFF734
:10553000FAF946E07D48844208D101210820FFF7AE
:10554000F2F900210820FFF7EEF93AE078488442AA
:1055500008D101211020FFF7E6F900211020FFF704
:10556000E2F92EE07348844208D101212020FFF7A0
:10557000DAF900212020FFF7D6F922E06E488442B4
:1055800008D101214020FFF7CEF900214020FFF78C
:10559000CAF916E06948844208D101218020FFF74A
:1055A000C2F900218020FFF7BEF90AE06448844276
:1055B00007D101218015FFF7B6F90021A015FFF7EB
:1055C000B2F910BDF0B50A4600210023002400BF47
:1055D0003DE0012505FA01F3156805EA03049C4244
:1055E00034D105684F000326BE40B54305601579E8
:1055F0004E00B5400668354305601579012D02D08F
:105600001579022D16D185684F000326BE40B5439B
:10561000856055794E00B54086683543856045689C
:1056200001268E40B5434560456896798E40B6B2F6
:1056300035434560C5684F000326BE40B543C5608D
:10564000D5794E00B540C6683543C560491C102960
:10565000BFD3F0BD4FF6FF710160002101714171B0
:105660008171C171704708B54FF480320092009A81
:105670000A430092009AC261C161009AC261C26984
:105680000092C269009208BD0246002013690B40D7
:105690000BB1012000E0002070470146086980B28C
:1056A00070470246002053690B400BB1012000E017
:1056B000002070470146486980B2704701837047F7
:1056C000418370470AB1018300E041837047416123
:1056D000704742694A4042617047F0B50023002498
:1056E0004D07ED0E02FA05F3CE1000F1200555F836
:1056F00026504E07F70E0F26BE40B543CF1000F1DF
:10570000200646F82750CE1000F1200555F8265007
:1057100045EA0304CE1000F1200545F82640F0BD0F
:10572000000002400004024000080240000C024059
:10573000001002400014024000180240001C024009
:1057400000200240016821F0010101600021016098
:1057500041608160C160016121214161DB49884272
:1057600004D13D21D94A103A91608CE0D7491831D3
:10577000884205D14FF47461D44A103A916082E0B6
:10578000D2493031884205D14FF47411CF4A103AD2
:10579000916078E0CD494831884205D14FF074617D
:1057A000CA4A103A91606EE0C8496031884204D11B
:1057B000C749C64A103AD16065E0C4497831884289
:1057C00004D1C449C14A103AD1605CE0BF4990316C
:1057D000884204D1C049BD4A103AD16053E0BB4968
:1057E000A831884205D14FF03D51B84A103AD160F6
:1057F00049E0BA49884204D13D21B84A083A1160CB
:1058000041E0B6491831884205D14FF47461B34A7A
:10581000083A116037E0B1493031884205D14FF480
:105820007411AE4A083A11602DE0AC494831884203
:1058300005D14FF07461A94A083A116023E0A749E5
:105840006031884204D1A249A44A121F11601AE0B3
:10585000A2497831884204D19E49A04A121F1160A2
:1058600011E09E499031884204D19B499B4A121F06
:10587000116008E09949A831884204D14FF03D51A8
:10588000964A121F1160704710B500220268944BAF
:105890001A40CC680B6823434C6923438C6923432B
:1058A000CC6923430C6A23434C6A23438C6A234309
:1058B0004C6B23438C6B23431A430260426922F0F2
:1058C0000702D1E90B3423431A4342610B69436059
:1058D0004B6883608B68C36010BD0021016041602C
:1058E0008160C160016141618161C16101624162A8
:1058F0008162C162016341638163704721B10268C3
:1059000042F00102026003E0026822F0010202603C
:10591000704721B1026842F40042026003E002686D
:1059200022F400420260704721B1026842F0200276
:10593000026003E0026822F02002026070474160CA
:1059400070470146486880B2704722B1036843F44B
:105950000023036003E0036823F400230360016174
:10596000704721B1026842F48022026003E00268BD
:1059700022F48022026070470AB1016100E0C16038
:105980007047014600200A6802F400220AB1012093
:1059900000E000207047014600200A6802F0010282
:1059A0000AB1012000E000207047014600204A694A
:1059B00002F03800704730B503460A460020002444
:1059C000464DAB4202D24149103901E043491039FA
:1059D00002F000550DB14C6800E00C68414D2C40C0
:1059E00004EA02050DB1012000E0002030BD0246AE
:1059F0003A4B9A4202D23548103801E03748103805
:105A000001F000531BB1374B0B40C36002E0354B34
:105A10000B408360704710B501F080034BB122B199
:105A2000436943F08003436103E0436923F080034B
:105A3000436180290BD02AB1036801F01E0423437F
:105A4000036004E0036801F01E04A343036010BD7B
:105A500070B50246002000240025204EB24202D23A
:105A60001A4B103B01E01D4B103B1F4E0E4036B150
:105A70001E2606EAD124166806EA040502E05669E5
:105A800006F0800501F000560EB15C6800E01C686D
:105A9000144E344004EA010616B10DB1012000E0B5
:105AA000002070BD02460D4B9A4202D207481038C2
:105AB00001E00A48103801F000531BB1094B0B40BC
:105AC000C36002E0074B0B408360704710600240E8
:105AD0003D000020400F002000003D2010640240E7
